:04000000FEEF7FF0A0
:1010000000003250D8B407EF08F009EF08F027EFDE
:1010100008F03250D96EDA6ADF50070B336E080ED3
:10102000336015EF08F017EF08F027EF08F03250A3
:10103000D96EDA6ADF30E832E832070B336E040E1D
:10104000336425EF08F027EF08F07FEF08F0000E7B
:1010500096EF08F03250D96EDA6ADF50070B336E24
:10106000010E346E332A37EF08F0D8903436332E21
:1010700035EF08F03450FF0A356E3250D96EDA6A17
:10108000DF30E832E832070B020DF350150FD96E4E
:10109000DA6ADECF36F0DDCF37F036C0D9FF37C0A1
:1010A000DAFF3550DF1695EF08F03250D96EDA6A64
:1010B000DF50070B336E010E346E332A62EF08F0F7
:1010C000D8903436332E60EF08F03250D96EDA6A99
:1010D000DF30E832E832070B020DF350150FD96EFE
:1010E000DA6ADECF35F0DDCF36F035C0D9FF36C055
:1010F000DAFF3450DF1295EF08F095EF08F0325028
:10110000D96EDA6ADFBE87EF08F08AEF08F0010EC9
:101110008BEF08F0000E000AD8B42AEF08F0010A9D
:10112000D8B455EF08F07DEF08F0010E12003250F0
:10113000D8B49DEF08F09FEF08F0BDEF08F03250F3
:10114000D96EDA6ADF50070B346E080E3460ABEFED
:1011500008F0ADEF08F0BDEF08F03250D96EDA6A52
:10116000DF30E832E832070B346E040E3464BBEF34
:1011700008F0BDEF08F015EF09F0000E21EF09F0BF
:101180003250D96EDA6ADF50070B346E010E356EBD
:10119000342ACDEF08F0D8903536342ECBEF08F056
:1011A0003550FF0A366E3250D96EDA6ADF30E832D7
:1011B000E832070B020DF3500B0FD96EDA6ADECF5F
:1011C00037F0DDCF38F037C0D9FF38C0DAFF3650FE
:1011D000DF1620EF09F03250D96EDA6ADF50070BC4
:1011E000346E010E356E342AF8EF08F0D89035369B
:1011F000342EF6EF08F03250D96EDA6ADF30E8327A
:10120000E832070B020DF3500B0FD96EDA6ADECF0E
:1012100036F0DDCF37F036C0D9FF37C0DAFF3550B2
:10122000DF1220EF09F020EF09F03350000AD8B4A4
:10123000C0EF08F0010AD8B4EBEF08F013EF09F0A3
:10124000010E12003C0E406E82EF09F0640E3F6EFC
:10125000450E326E000E336E97EC08F02E0E326E95
:10126000000E336E97EC08F0290E3A6E40C032F053
:10127000336A000E356E0A0E346E8BEC09F0325074
:101280003B6E43EC0AF0450E326E010E336E97EC66
:1012900008F00D0E3E6EFC0EE82EFED73E2EFCD75B
:1012A000450E326E000E336E97EC08F0290E3A6E42
:1012B00040C032F0336A000E356E0A0E346EECEC2C
:1012C00009F032503B6E43EC0AF02E0E326E010EE6
:1012D000336E97EC08F00D0E3E6EFC0EE82EFED736
:1012E0003E2EFCD72E0E326E000E336E97EC08F0B9
:1012F0003F063F50D8A47FEF09F081EF09F028EFB7
:1013000009F040064050D8A488EF09F08AEF09F0B0
:1013100026EF09F01200376A35BE93EF09F091EF1E
:1013200009F099EF09F0346C351ED8B0352A010E5A
:10133000376E33BEA0EF09F09EEF09F0A6EF09F07B
:10134000326C331ED8B0332A010E371A000E396EB4
:10135000000E386E34503510D8B4B1EF09F0B3EF49
:1013600009F0DBEF09F0010E366EBBEF09F0D89003
:1013700034363536362A35AEC0EF09F0C2EF09F003
:10138000B7EF09F0D890383639363450325C3550E2
:101390003358D8A0CEEF09F0D0EF09F0D5EF09F01F
:1013A0003450325E3550335A3880D890353234322A
:1013B000362EC2EF09F03750D8B4E1EF09F0E3EF71
:1013C00009F0E7EF09F0386C391ED8B0392A38C077
:1013D00032F039C033F01200376A33BEF4EF09F04F
:1013E000F2EF09F0FAEF09F0326C331ED8B0332A6D
:1013F000010E376E35BE01EF0AF0FFEF09F005EF81
:101400000AF0346C351ED8B0352A34503510D8B4B3
:101410000CEF0AF00EEF0AF032EF0AF0010E366E12
:1014200016EF0AF0D89034363536362A35AE1BEF33
:101430000AF01DEF0AF012EF0AF03450325C35501A
:101440003358D8A026EF0AF028EF0AF02CEF0AF064
:101450003450325E3550335AD89035323432362ECD
:101460001DEF0AF03750D8B438EF0AF03AEF0AF01F
:101470003EEF0AF0326C331ED8B0332A32C032F05D
:1014800033C033F012003A50D8B449EF0AF04BEFB2
:101490000AF053EF0AF0090E3B6451EF0AF053EFE4
:1014A0000AF055EF0AF08AEF0AF03A50D96EDA6A7C
:1014B000040ED926DE04D8A460EF0AF062EF0AF029
:1014C00063EF0AF03B1E3AC032F03B50010B336E23
:1014D00097EC08F03D6E3A28326ED8903B30010B05
:1014E000336E97EC08F03D123A50020F326E3B40DB
:1014F000E8423F0B010B336E97EC08F03D123A5077
:10150000030F326E3B38E8461F0B010B336E97EC2E
:1015100008F03D1212003950D8A491EF0AF093EF71
:101520000AF096EF0AF03B6AC3EF0AF043C03CF0C2
:101530003950D96EDA6ADF30E832E832070B3A6E9A
:101540003C503A18F80B3A183C6E3950D96EDA6AAA
:10155000DF50070B3A6E3A463A463A463C503A1844
:10156000C70B3A183C6E3950D96EDA6ADFAC02D03C
:101570003C8C01D03C9C3C9E3C0E326E010E336E86
:1015800097EC08F03B6E3B5012003950D8A4CBEFDB
:101590000AF0CDEF0AF0D0EF0AF03B6AFDEF0AF057
:1015A00042C03CF03950D96EDA6ADF30E832E832B6
:1015B000070B3A6E3C503A18F80B3A183C6E39500B
:1015C000D96EDA6ADF50070B3A6E3A463A463A4627
:1015D0003C503A18C70B3A183C6E3950D96EDA6A4B
:1015E000DFAC02D03C8C01D03C9C3C9E3C0E326E69
:1015F000000E336E97EC08F03B6E3B5012003950F2
:10160000D8B405EF0BF007EF0BF023EF0BF03950D8
:10161000D96EDA6ADF50070B3A6E080E3A6013EFA4
:101620000BF015EF0BF023EF0BF03950D96EDA6A9F
:10163000DF50070B3A6E040E3A6421EF0BF023EFF4
:101640000BF026EF0BF0000E38EF0BF039C032F044
:1016500001EC08F03B6E39C032F03950D96EDA6ACD
:10166000000EDFBC010E336E97EC08F03B123B50CE
:1016700012003C50D8A43FEF0BF041EF0BF044EFC9
:101680000BF03E6A6FEF0BF044C03FF03C50D96E58
:10169000DA6ADF30E832E832070B3D6E3F503D1822
:1016A000F80B3D183F6E3C50D96EDA6ADF50070BDD
:1016B0003D6E3D463D463D463F503D18C70B3D18EB
:1016C0003F6E3C50D96EDA6ADFAC02D03F8C01D05D
:1016D0003F9C3F9E3F0E396EFFEC0AF03E6E3E503F
:1016E0001200BEEC0BF0310E396E8BEC0AF0466E38
:1016F00022EC09F0310E396EC5EC0AF0466E300E60
:10170000396E8BEC0AF0466E22EC09F0300E396E21
:10171000C5EC0AF0466E2F0E396E8BEC0AF0466E61
:1017200022EC09F02F0E396EC5EC0AF0466E73EF0D
:101730000BF0FEEF7FF03C50D8A4A1EF0BF0A3EF2D
:101740000BF0A6EF0BF03D6ABCEF0BF03CC039F09C
:10175000FFEC0AF03D6E3C28396EFFEC0AF03D12BA
:101760003C50020F396EFFEC0AF03D123C50030F63
:10177000396EFFEC0AF03D123D501200290E3C6E0E
:101780009BEC0BF0466E450E396EFFEC0AF0466E90
:101790002E0E396EFFEC0AF0466E310E3C6E39ECBF
:1017A0000BF0466E300E3C6E39EC0BF0466E2F0E91
:1017B0003C6E39EC0BF0466E1200EE0EF66E170E14
:1017C000F76E000EF86E00EE01F010EE31F0090039
:1017D000F5CFEEFFE550E150FAE1456A446A436A0D
:1017E000426A416A000EF86E000171EF0BF00001D1
:1017F0000203040506070809890F8A0F8B0F8C0F57
:101800008D0F920F930F940F950F960F800F810FEE
:0F181000820F830F840F18191A1B0001120A028E
:04FFFC00DDEF0BF03A
:020000040030CA
:0E000000FF02091EFF8181FF0FC00FE00F40BD
:00000001FF
